:10000000020848020AF7D2B0000000C2B0020EA1F6
:03001300020B5C81
:030023000209BB14
:100033000208D4E709F608DFFA8046E709F208DF89
:10004300FA803E88828C83E709F0A3DFFA8032E3EB
:1000530009F608DFFA8078E309F208DFFA8070888E
:10006300828C83E309F0A3DFFA806489828A83E0C8
:10007300A3F608DFFA805889828A83E0A3F208DFB7
:10008300FA804C80D280FA80C680D4806980F28066
:1000930033801080A680EA809A80A880DA80E2808C
:1000A300CA803389828A83ECFAE493A3C8C582C8E1
:1000B300CCC583CCF0A3C8C582C8CCC583CCDFE94B
:1000C300DEE7800D89828A83E493A3F608DFF9ECE7
:1000D300FAA9F0EDFB2289828A83ECFAE0A3C8C572
:1000E30082C8CCC583CCF0A3C8C582C8CCC583CC99
:1000F300DFEADEE880DB89828A83E493A3F208DF08
:10010300F980CC88F0EF60010E4E60C388F0ED24D7
:1001130002B4040050B9F582EB2402B4040050AFDA
:10012300232345822390008673C2D530F707B2D5C7
:1001330063F0FF05F030E70CB2D5F4048463F0FFFD
:1001430005F080018430D502F40422BB01068982C4
:100153008A83E0225002E722BBFE02E32289828ADD
:1001630083E49322C2D5EC30E709B2D5E4C39DFD05
:10017300E49CFCEE30E715B2D5E4C39FFFE49EFE9A
:100183001202E4C3E49DFDE49CFC80031202E4300C
:10019300D507C3E49FFFE49EFE22E88FF0A4CC8B37
:1001A300F0A42CFCE98EF0A42CFC8AF0EDA42CFC2A
:1001B300EA8EF0A4CDA8F08BF0A42DCC3825F0FD69
:1001C300E98FF0A42CCD35F0FCEB8EF0A4FEA9F062
:1001D300EB8FF0A4CFC5F02ECD39FEE43CFCEAA4AE
:1001E3002DCE35F0FDE43CFC2275F008758200EF5E
:1001F3002FFFEE33FECD33CDCC33CCC58233C58256
:100203009BED9AEC99E58298400CF582EE9BFEED0E
:100213009AFDEC99FC0FD5F0D6E4CEFBE4CDFAE4DD
:10022300CCF9A88222B800C1B90059BA002DEC8BD1
:10023300F084CFCECDFCE5F0CBF97818EF2FFFEEAD
:1002430033FEED33FDEC33FCEB33FB10D703994066
:1002530004EB99FB0FD8E5E4F9FA227818EF2FFFA6
:10026300EE33FEED33FDEC33FCC933C910D7059BE8
:10027300E99A4007EC9BFCE99AF90FD8E0E4C9FA44
:10028300E4CCFB2275F010EF2FFFEE33FEED33FDD0
:10029300CC33CCC833C810D7079BEC9AE899400AF3
:1002A300ED9BFDEC9AFCE899F80FD5F0DAE4CDFB71
:1002B300E4CCFAE4C8F922EB9FF5F0EA9E42F0E9B8
:1002C3009D42F0EC6480C864809845F022E8601099
:1002D300ECA2E713FCED13FDEE13FEEF13FFD8F0D2
:1002E30022BC000BBE0029EF8DF084FFADF022E4A9
:1002F300CCF875F008EF2FFFEE33FEEC33FCEE9DE8
:10030300EC984005FCEE9DFE0FD5F0E9E4CEFD220E
:10031300EDF8F5F0EE8420D21CFEADF075F008EF99
:100323002FFFED33FD4007985006D5F0F222C39816
:10033300FD0FD5F0EA22BB010CE58229F582E583A6
:100343003AF583E0225006E92582F8E622BBFE0651
:10035300E92582F8E222E58229F582E5833AF583ED
:10036300E49322BB010689828A83F0225002F7229A
:10037300BBFE01F322FAE6FB0808E6F925F0F618BE
:10038300E6CA3AF622D083D082F8E493701274015D
:1003930093700DA3A393F8740193F5828883E47398
:1003A3007402936860EFA3A3A380DFE5502444F8AD
:1003B300E605502278413007027844E475F00112D3
:1003C300037802014E2000EB7F2ED2008018EF54F9
:1003D3000F2490D43440D4FF30040BEF24BFB41A5D
:1003E3000050032461FFE551600215510554E554A3
:1003F3007002055330070D7841E475F0011203785C
:10040300EF020366020E507403D2078003E4C207AF
:10041300F5508B418A428943E4F551F553F554E590
:100423005160077F201203E980F57552FFC201C2B4
:1004330000C202C203C205C206C2081203B7FF709C
:100443000D3007057F001203FAAF54AE5322B425D3
:100453005FC2D5C2041203B7FF24D0B40A00501AF6
:1004630075F00A785130D50508B6FF0106C6A426F3
:10047300F620D5047002D20380D924CFB41A00EF3A
:100483005004C2E5D2040205FAD20180C6D200802C
:10049300C0D20280BCD2D580BAD20580B47F2012EC
:1004A30003E92002077401B5510040F11203AEFFC6
:1004B3001203E9020422D208D20680951203AEFB8E
:1004C3001203AEFA1203AEF94A4B700679CB7A06E1
:1004D3007BFF20022EE551602A7E008E8275830009
:1004E30012033960060EEE655270F0C2D5EBC0E020
:1004F300EAC0E0E9C0E0EE120641D0E0F9D0E0FA4C
:10050300D0E0FB12014EFF60AAEBC0E0EAC0E0E9D5
:10051300C0E01203E9D0E02401F9D0E03400FAD0BE
:10052300E0FBE5520460DCD552D980877BFF7A0675
:10053300793DD202809C791080027908C206C208F4
:100543008008D2D5790A8004790AC2D5E5520470AD
:1005530002F552E4FAFDFEFF1203AEFC7B08200114
:10056300131203AEFD7B1030000A1203AEFE12031A
:10057300AEFF7B20EC3382D592D55013C3E4300019
:10058300069FFFE49EFEE42001039DFDE49CFCE442
:10059300CBF8C201EC700CCFCECDCCE824F8F870C8
:1005A300F38017C3EF33FFEE33FEED33FDEC33FC83
:1005B300EB33FB994002FB0FD8E9EB300105F8D090
:1005C300E0C448B201C0E00AEC4D4E4F78207B00F6
:1005D30070C2EAB5520040BCC0E0120643D0F0D06E
:1005E300E0200104C4C0E0C4B201C0F01203D2D0C1
:1005F300F0D5F0EB02042212038804BF53053958E7
:1006030004904C048C42053D4F054544054549047F
:10061300A543054B55052F46052F45052F4706EBEB
:100623005004942D04982E04BB2B049C2304B9205E
:1006330006D42A045448000004B33F3F3F00790A1C
:10064300A2D5200314300509B910020404B9080126
:1006530004A2D52006025001042002689202B5517B
:10066300005034C0E07F203003197F30A2027206AD
:100673007205500F12069AC202C206C205C2087F53
:1006830030800F300503E9C0E01203E9300503D0E1
:10069300E0F9D0E0B551CC3005177F30B9100C121A
:1006A30003E97F583004077F788003B908031203F6
:1006B300E93002057F2D0203E97F202008F87F2B14
:1006C3002006F322920280CF286E756C6C2900D22B
:1006D300011203AE3001F8C201785130D50108F69A
:1006E3000204542D504349581203AE2403B40500A9
:1006F3004001E49006E6931203DA743A1203DAD265
:1007030003755104020539900100E0D394005003AE
:100713000207BA7F0A7E00120EC1900105E064C889
:1007230060030207B5A3E064017045A3E0F527A3C6
:10073300E0FEA3E07C002400F529EC3EF528A3E0CD
:10074300FEA3E02400F52BEC3EF52AA3E0F52CE50F
:100753002B452A70057526018003752602852A31EB
:10076300852B32852C33AB29AA28AD27AF26803FB2
:10077300900106E0640270257FC8120A257F0212E9
:100783000A25AF7B120A25AF75120A25AF79120A23
:1007930025AF7A120A25E4FF120A25801590010677
:1007A300E0B4030EE4F531F532F533FBFAFDFF1245
:1007B3000EF5E4900100F022E4F522F523F524F58B
:1007C300257F807E25FDFC120C247F807E257D0005
:1007D3007C00120C83D2AF7BFF7A0F7921120DBB01
:1007E3007F807E257D007C00120C2490801C742267
:1007F300F0908007F090800E7405F09080067441AD
:10080300F0908126E054EFF0120EDCE4F531F5327E
:10081300F533FBFAFDFF120EF50523E52370020500
:1008230022120CDB12070A120E23AE22AF237C0B1B
:100833007DB8120167ED4C700312094E7F017E00F3
:10084300120EC180D4787FE4F6D8FD75817B02084F
:100853008F0207BBE493A3F8E493A34003F680015C
:10086300F208DFF48029E493A3F85407240CC8C3E7
:1008730033C4540F4420C8834004F456800146F621
:10088300DFE4800B0102040810204080900BC1E4D8
:100893007E019360BCA3FF543F30E509541FFEE47F
:1008A30093A360010ECF54C025E060A840B8E49341
:1008B300A3FAE493A3F8E493A3C8C582C8CAC58383
:1008C300CAF0A3C8C582C8CAC583CADFE9DEE78008
:1008D300BEC0E0C0F0C083C082C0D075D000C007E6
:1008E300E59A30E023E59A54FC4401F59A9001021D
:1008F300E004F0E075F06484E5F0F0E02468F5824C
:10090300E43401F583E59BF0E59A30E131E59A544F
:10091300FC4402F59A9001F7E0FF9001F6E06F6066
:100923001BA3E004F0E075F01484E5F0F0E024E0AC
:10093300F582E43401F583E0F59B8002C20AD00717
:10094300D0D0D082D083D0F0D0E032D3E5799400F8
:10095300E578648094804037E57BB401047F64804C
:1009630024E57BB40218D3E5779579E5786480F8BC
:10097300E5766480984003757B01E4FF8007E57B9F
:10098300B403057F14020D2AE4FF120D2A801AE531
:100993007BB40115E57AB4011E7531017532E0E4CB
:1009A300F533FBFAFD7F03800BE4F531F532F533C4
:1009B300FBFAFDFF120EF522C0E0C0F0C083C08237
:1009C300C0D075D000C00730981DC298900100E0D8
:1009D30004F0E075F06484E5F0F0E02404F582E4CB
:1009E3003401F583E599F030992BC2999001F5E034
:1009F300FF9001F4E06F601BA3E004F0E075F014D6
:100A030084E5F0F0E024CCF582E43401F583E0F5ED
:100A1300998002C209D007D0D0D082D083D0F0D041
:100A2300E0329001F5E0FD9001F4E0FCC39D500637
:100A3300C3ED9CFE800DED2414FE9001F4E0FDC394
:100A4300EE9DFEEED3940140D9C2AC9001F4E004D4
:100A5300F0E075F01484E5F0F0E024CCF582E434A2
:100A630001F583EFF0200920D2AC9001F5E004F00A
:100A7300E075F01484E5F0F0E024CCF582E4340171
:100A8300F583E0F599D20922D2AC229001F7E0FD7B
:100A93009001F6E0FCC39D5006C3ED9CFE800DED76
:100AA3002414FE9001F6E0FDC3EE9DFEEED3940107
:100AB30040D9C2AE9001F6E004F0E075F01484E58D
:100AC300F0F0E024E0F582E43401F583EFF0200A4E
:100AD30020D2AE9001F7E004F0E075F01484E5F065
:100AE300F0E024E0F582E43401F583E0F59BD20ADB
:100AF30022D2AE22C0E0C0F0C083C082C0D075D085
:100B030000C000C001C002C003C004C005C006C0CD
:100B130007E55F64017027E563702320871D30B507
:100B23001A7F0AFE120EC120871130B50E0560D35D
:100B3300E560648094E44003756064756301D007E5
:100B4300D006D005D004D003D002D001D000D0D03D
:100B5300D082D083D0F0D0E032C0E0C0F0C083C0F8
:100B630082C0D075D000C000C001C002C003C00461
:100B7300C005C006C007E55F64017027E563702305
:100B830030871D20B51A7F0AFE120EC1308711204F
:100B9300B50E1560C3E5606480948B500375600BDC
:100BA300756301D007D006D005D004D003D002D09E
:100BB30001D000D0D0D082D083D0F0D0E032017207
:100BC300FF0173FF0174FF015F0101610001620016
:100BD300016064015E0001630001550101560001DB
:100BE300570101580002590064025B0000015D00D7
:100BF30014080000000000000000000000000000D6
:100C0300000000000000027000000A640000000001
:100C1300000000000000026E0000011D00011C0125
:100C2300008F298E288D278C269080197403F090CD
:100C33008018F0E49001F4F0A3F0900100F0A3F029
:100C4300C2097F20FEFDFCAB29AA28A927A82612EA
:100C5300019DA804A905AA06AB077F007E407D3845
:100C63007C00120228C3E49FFFE49EAD0775C824ED
:100C7300F5CB8DCAF5CD8DCCD2CE759850D2AC22A2
:100C83008F298E288D278C26E49001F6F0A3F0900F
:100C93000102F0A3F0C20A7F20FEFDFCAB29AA28C3
:100CA300A927A82612019DA804A905AA06AB077FB8
:100CB300007E407D387C00120228C3E49FFF740449
:100CC3009EAD07FC90800A7403F0908009F08C9D20
:100CD3008D9C759AD0D2AE22A286E43365726046AB
:100CE300A286E433F572B40111E4F531F5327533BC
:100CF300017B19FA7D017F018029E5794578701818
:100D0300E57BB401137531017532E07533017B194D
:100D13007A007D017F03800BE4F531F532F533FB77
:100D2300FAFDFF120EF5228F26E51C65266044E4CA
:100D3300FCFDFE7BCC7A1CF9F812019DE47B64FA7E
:100D4300F9F8120D7778081202D08FD1AF26E4FCA0
:100D5300FDFE7BCC7A1CF9F812019DE47B64FAF961
:100D6300F8120D778FDF75D901E5D970FC75D801BD
:100D730085261C22C2D5E830E70FB2D5E4C39BFB1E
:100D8300E49AFAE499F9E498F8EC30E717B2D5124B
:100D93000DAD120228E4C39BFBE49AFAE499F9E44B
:100DA30098F8800312022830D50DE4C39FFFE49E18
:100DB300FEE49DFDE49CFC228B268A278928753856
:100DC30000753900753A298B3B8A3C893D85383E4D
:100DD30085393F853A407B017A007900120DF57B16
:100DE300017A007900120E77753800753900753A6B
:100DF3000022853B44853C45853D46EBC53EFBEAE9
:100E0300C53FFAE9C540F97F09784712014EF60854
:100E130009E970010ADFF4AB3EAA3FA94002040AC4
:100E2300E573657B6026857B73E5737002800FE550
:100E330073B40105D2B4C28722E573B40205D2B4F8
:100E4300D28722E573B40304C2B4D28722EFB40A73
:100E530007740D120E5B740A309811A899B8130C1D
:100E6300C2983098FDA899C298B811F63099FDC27E
:100E730099F599228B3B8A3C893DAB3BAA3CA93D22
:100E830012014E6013053DE53D7002053C14F91255
:100E9300014EFF120A8E80E222120006E4FFE4FEF6
:100EA300C281EF30E004D2908002C290000000D2F1
:100EB30081EFC313FF0EBE08E7C281C290228F8267
:100EC3008E83E5821582AE83700215834E60097F9F
:100ED300147E00120F0B80EA2243A14090800D7410
:100EE30006F0E4F5C075DB0175DC6475DE1C75DDA9
:100EF300CC228F7B8D758A768B77E5322BF579E55E
:100F0300313AF57885337A22EF1FAA0670011E4A1B
:100F1300600BE4FDEDC3940F50EE0D80F7224750B4
:0E0F2300494F2044656D6F20436F64650A00DE
:00000001FF
