:1000000002067F0207EED2B0000000C2B0020AC2B0
:100013000208538F828E83E5821582AE83700215A8
:0E002300834E60097F147E00120AE280EA22FA
:1000330002070BE54E2442F8E6054E22783F3007CF
:10004300027842E475F0011206490204AA2000EB8B
:100053007F2ED2008018EF540F2490D43440D4FF65
:1000630030040BEF24BFB41A0050032461FFE54FA3
:100073006002154F0552E5527002055130070D78A5
:100083003FE475F001120649EF020637020A717464
:1000930003D2078003E4C207F54E8B3F8A408941B0
:1000A300E4F54FF551F552E54F60077F20120071DB
:1000B30080F57550FFC201C200C202C203C205C26D
:1000C30006C20812003FFF700D3007057F001200C3
:1000D30082AF52AE5122B4255FC2D5C20412003F93
:1000E300FF24D0B40A00501A75F00A784F30D505B2
:1000F30008B6FF0106C6A426F620D5047002D20373
:1001030080D924CFB41A00EF5004C2E5D20402020E
:1001130082D20180C6D20080C0D20280BCD2D580F8
:10012300BAD20580B47F201200712002077401B592
:100133004F0040F1120036FF1200710200AAD208EC
:10014300D2068095120036FB120036FA120036F9F9
:100153004A4B700679537A037BFF20022EE54F60EA
:100163002A7E008E8275830012060A60060EEE65F3
:100173005070F0C2D5EBC0E0EAC0E0E9C0E0EE1297
:1001830002C9D0E0F9D0E0FAD0E0FB1204AAFF6084
:10019300AAEBC0E0EAC0E0E9C0E0120071D0E024BD
:1001A30001F9D0E03400FAD0E0FBE5500460DCD57F
:1001B30050D980877BFF7A0279C5D202809C79105F
:1001C30080027908C206C2088008D2D5790A800461
:1001D300790AC2D5E550047002F550E4FAFDFEFF3A
:1001E300120036FC7B08200113120036FD7B103011
:1001F300000A120036FE120036FF7B20EC3382D554
:1002030092D55013C3E43000069FFFE49EFEE42022
:1002130001039DFDE49CFCE4CBF8C201EC700CCF20
:10022300CECDCCE824F8F870F38017C3EF33FFEE9C
:1002330033FEED33FDEC33FCEB33FB994002FB0F54
:10024300D8E9EB300105F8D0E0C448B201C0E00AB8
:10025300EC4D4E4F78207B0070C2EAB5500040BC95
:10026300C0E01202CBD0F0D0E0200104C4C0E0C44F
:10027300B201C0F012005AD0F0D5F0EB0200AA127E
:10028300065901475301C15801184C01144201C5D5
:100293004F01CD4401CD49012D4301D35501B7464B
:1002A30001B74501B747037350011C2D01202E01EF
:1002B300432B012423014120035C2A00DC48000076
:1002C300013B3F3F3F00790AA2D5200314300509C3
:1002D300B910020404B9080104A2D5200602500192
:1002E300042002689202B54F005034C0E07F2030F2
:1002F30003197F30A20272067205500F120322C245
:1003030002C206C205C2087F30800F300503E9C070
:10031300E0120071300503D0E0F9D0E0B54FCC30E6
:1003230005177F30B9100C1200717F583004077F16
:10033300788003B908031200713002057F2D020093
:10034300717F202008F87F2B2006F322920280CFB2
:10035300286E756C6C2900D2011200363001F8C288
:1003630001784F30D50108F60200DC2D504349587F
:100373001200362403B405004001E490036E931287
:100383000062743A120062D203754F040201C1E79E
:1003930009F608DFFA8046E709F208DFFA803E88AB
:1003A300828C83E709F0A3DFFA8032E309F608DFE2
:1003B300FA8078E309F208DFFA807088828C83E39D
:1003C30009F0A3DFFA806489828A83E0A3F608DF59
:1003D300FA805889828A83E0A3F208DFFA804C808E
:1003E300D280FA80C680D4806980F2803380108006
:1003F300A680EA809A80A880DA80E280CA80338966
:10040300828A83ECFAE493A3C8C582C8CCC583CCA3
:10041300F0A3C8C582C8CCC583CCDFE9DEE7800D75
:1004230089828A83E493A3F608DFF9ECFAA9F0ED55
:10043300FB2289828A83ECFAE0A3C8C582C8CCC5B3
:1004430083CCF0A3C8C582C8CCC583CCDFEADEE881
:1004530080DB89828A83E493A3F208DFF980CC8866
:10046300F0EF60010E4E60C388F0ED2402B4040087
:1004730050B9F582EB2402B4040050AF2323458224
:10048300239003E273C2D530F707B2D563F0FF05BB
:10049300F030E70CB2D5F4048463F0FF05F080017B
:1004A3008430D502F40422BB010689828A83E022C8
:1004B3005002E722BBFE02E32289828A83E493226D
:1004C300E88FF0A4CC8BF0A42CFCE98EF0A42CFCD8
:1004D3008AF0EDA42CFCEA8EF0A4CDA8F08BF0A456
:1004E3002DCC3825F0FDE98FF0A42CCD35F0FCEBB5
:1004F3008EF0A4FEA9F0EB8FF0A4CFC5F02ECD397A
:10050300FEE43CFCEAA42DCE35F0FDE43CFC227570
:10051300F008758200EF2FFFEE33FECD33CDCC33E1
:10052300CCC58233C5829BED9AEC99E58298400C49
:10053300F582EE9BFEED9AFDEC99FC0FD5F0D6E427
:10054300CEFBE4CDFAE4CCF9A88222B800C1B9000D
:1005530059BA002DEC8BF084CFCECDFCE5F0CBF96E
:100563007818EF2FFFEE33FEED33FDEC33FCEB3366
:10057300FB10D703994004EB99FB0FD8E5E4F9FA94
:10058300227818EF2FFFEE33FEED33FDEC33FCC979
:1005930033C910D7059BE99A4007EC9BFCE99AF90C
:1005A3000FD8E0E4C9FAE4CCFB2275F010EF2FFF7B
:1005B300EE33FEED33FDCC33CCC833C810D7079BE5
:1005C300EC9AE899400AED9BFDEC9AFCE899F80F48
:1005D300D5F0DAE4CDFBE4CCFAE4C8F922EB9FF5DD
:1005E300F0EA9E42F0E99D42F0EC6480C864809892
:1005F30045F022E86010ECA2E713FCED13FDEE13C7
:10060300FEEF13FFD8F022BB010CE58229F582E54A
:10061300833AF583E0225006E92582F8E622BBFE01
:1006230006E92582F8E222E58229F582E5833AF597
:1006330083E49322BB010689828A83F0225002F766
:1006430022BBFE01F322FAE6FB0808E6F925F0F6E1
:1006530018E6CA3AF622D083D082F8E49370127473
:100663000193700DA3A393F8740193F5828883E437
:10067300737402936860EFA3A3A380DF787FE4F62B
:10068300D8FD75816F0206C60208B8E493A3F8E4A7
:1006930093A34003F68001F208DFF48029E493A3D7
:1006A300F85407240CC8C333C4540F4420C88340F0
:1006B30004F456800146F6DFE4800B0102040810BF
:1006C300204080900913E47E019360BCA3FF543F54
:1006D30030E509541FFEE493A360010ECF54C025F7
:1006E300E060A840B8E493A3FAE493A3F8E493A3E7
:1006F300C8C582C8CAC583CAF0A3C8C582C8CAC54B
:1007030083CADFE9DEE780BEC0E0C0F0C083C082F9
:10071300C0D075D000C007E59A30E023E59A54FCB9
:100723004401F59A900100E004F0E075F06484E57B
:10073300F0F0E02402F582E43401F583E59BF0E573
:100743009A30E131E59A54FC4402F59A90017BE03A
:10075300FF90017AE06F601BA3E004F0E075F014F2
:1007630084E5F0F0E02466F582E43401F583E0F5F6
:100773009B8002C209D007D0D0D082D083D0F0D0E2
:10078300E03290017BE0FD90017AE0FCC39D5006CE
:10079300C3ED9CFE800DED2414FE90017AE0FDC3B1
:1007A300EE9DFEEED3940140D9C2AE90017AE004EF
:1007B300F0E075F01484E5F0F0E02466F582E434AB
:1007C30001F583EFF0200920D2AE90017BE004F025
:1007D300E075F01484E5F0F0E02466F582E434017A
:1007E300F583E0F59BD20922D2AE22C0E0C0F0C06F
:1007F30083C082C0D075D000C000C001C002C00356
:10080300C004C005C006C007E55D64017027E5614B
:10081300702320871D30B51A7F0AFE120016208729
:100823001130B50E055ED3E55E648094E440037534
:100833005E64756101D007D006D005D004D003D023
:1008430002D001D000D0D0D082D083D0F0D0E0321B
:10085300C0E0C0F0C083C082C0D075D000C000C06B
:1008630001C002C003C004C005C006C007E55D6443
:10087300017027E561702330871D20B51A7F0AFEBA
:1008830012001630871120B50E155EC3E55E648035
:10089300948B5003755E0B756101D007D006D005AC
:1008A300D004D003D002D001D000D0D0D082D083E6
:1008B300D0F0D0E032E4F522F523FF7EC27D01FCC7
:1008C30012096DD2AF7BFF7A0A79F8120A09908078
:1008D3001C7422F0908007F090800D7442F0A37492
:1008E30005F09080067441F090812DE054EFF09074
:1008F3008126E054EFF0308608D295C287D2B480C7
:1009030006C295D287C2B47F017E0012001680E62C
:10091300015D01015F00016000015E64015C000193
:1009230061000153010154000155010156000257B2
:10093300006402590000015B00140800000000007D
:1009430000000000000000000000000000000002A2
:100953006E00000A620000000000000000000002B8
:100963006C0000011D00011C01008F278E268D25C0
:100973008C24E490017AF0A3F0900100F0A3F0C27C
:10098300097F20FEFDFCAB27AA26A925A824120473
:10099300C3A804A905AA06AB077F007E407D387C67
:1009A3000012054EC3E49FFF74049EAD07FC9080C4
:1009B3000A7403F0908009F08C9D8D9C759AD0D2B7
:1009C300AE22C2D5E830E70FB2D5E4C39BFBE49A6D
:1009D300FAE499F9E498F8EC30E717B2D51209FB79
:1009E30012054EE4C39BFBE49AFAE499F9E498F800
:1009F300800312054E30D50DE4C39FFFE49EFEE451
:100A03009DFDE49CFC228B248A258926753600757E
:100A130037007538278B398A3A893B85363C8537C9
:100A23003D85383E7B017A007900120A437B017AC7
:100A3300007900120A987536007537007538002260
:100A4300853942853A43853B44EBC53CFBEAC53DCA
:100A5300FAE9C53EF97F0978451204AAF60809E9BF
:100A630070010ADFF4AB3CAA3DA93E020092EFB449
:100A73000A07740D120A7C740A309811A899B813E6
:100A83000CC2983098FDA899C298B811F63099FD18
:100A9300C299F599228B398A3A893BAB39AA3AA98B
:100AA3003B1204AA6013053BE53B7002053A14F9B7
:100AB3001204AAFF12078580E222120006E4FFE473
:100AC300FEC281EF30E004D2908002C290000000A9
:100AD300D281EFC313FF0EBE08E7C281C29022EF9B
:100AE3001FAA0670011E4A600BE4FDEDC3940F506C
:100AF300EE0D80F7224750494F2044656D6F204328
:050B03006F64650A00AB
:00000001FF
